{
  "contractName": "DIAOracle",
  "abi": [
    {
      "inputs": [],
      "stateMutability": "nonpayable",
      "type": "constructor"
    },
    {
      "anonymous": false,
      "inputs": [
        {
          "indexed": false,
          "internalType": "string",
          "name": "key",
          "type": "string"
        },
        {
          "indexed": false,
          "internalType": "uint128",
          "name": "value",
          "type": "uint128"
        },
        {
          "indexed": false,
          "internalType": "uint128",
          "name": "timestamp",
          "type": "uint128"
        }
      ],
      "name": "OracleUpdate",
      "type": "event"
    },
    {
      "anonymous": false,
      "inputs": [
        {
          "indexed": false,
          "internalType": "address",
          "name": "newUpdater",
          "type": "address"
        }
      ],
      "name": "UpdaterAddressChange",
      "type": "event"
    },
    {
      "inputs": [
        {
          "internalType": "string",
          "name": "",
          "type": "string"
        }
      ],
      "name": "values",
      "outputs": [
        {
          "internalType": "uint256",
          "name": "",
          "type": "uint256"
        }
      ],
      "stateMutability": "view",
      "type": "function"
    },
    {
      "inputs": [
        {
          "internalType": "string",
          "name": "key",
          "type": "string"
        },
        {
          "internalType": "uint128",
          "name": "value",
          "type": "uint128"
        },
        {
          "internalType": "uint128",
          "name": "timestamp",
          "type": "uint128"
        }
      ],
      "name": "setValue",
      "outputs": [],
      "stateMutability": "nonpayable",
      "type": "function"
    },
    {
      "inputs": [
        {
          "internalType": "string",
          "name": "key",
          "type": "string"
        }
      ],
      "name": "getValue",
      "outputs": [
        {
          "internalType": "uint128",
          "name": "",
          "type": "uint128"
        },
        {
          "internalType": "uint128",
          "name": "",
          "type": "uint128"
        }
      ],
      "stateMutability": "view",
      "type": "function"
    },
    {
      "inputs": [
        {
          "internalType": "address",
          "name": "newOracleUpdaterAddress",
          "type": "address"
        }
      ],
      "name": "updateOracleUpdaterAddress",
      "outputs": [],
      "stateMutability": "nonpayable",
      "type": "function"
    }
  ],
  "bytecode": "0x608060405234801561001057600080fd5b5033600160006101000a81548173ffffffffffffffffffffffffffffffffffffffff021916908373ffffffffffffffffffffffffffffffffffffffff160217905550610713806100616000396000f3fe608060405234801561001057600080fd5b506004361061004c5760003560e01c80635a9ade8b146100515780636aa45efc146101205780637898e0c214610164578063960384a014610257575b600080fd5b61010a6004803603602081101561006757600080fd5b810190808035906020019064010000000081111561008457600080fd5b82018360208201111561009657600080fd5b803590602001918460018302840111640100000000831117156100b857600080fd5b91908080601f016020809104026020016040519081016040528093929190818152602001838380828437600081840152601f19601f820116905080830192505050505050509192919290505050610351565b6040518082815260200191505060405180910390f35b6101626004803603602081101561013657600080fd5b81019080803573ffffffffffffffffffffffffffffffffffffffff16906020019092919050505061037f565b005b6102556004803603606081101561017a57600080fd5b810190808035906020019064010000000081111561019757600080fd5b8201836020820111156101a957600080fd5b803590602001918460018302840111640100000000831117156101cb57600080fd5b91908080601f016020809104026020016040519081016040528093929190818152602001838380828437600081840152601f19601f82011690508083019250505050505050919291929080356fffffffffffffffffffffffffffffffff16906020019092919080356fffffffffffffffffffffffffffffffff16906020019092919050505061046a565b005b6103106004803603602081101561026d57600080fd5b810190808035906020019064010000000081111561028a57600080fd5b82018360208201111561029c57600080fd5b803590602001918460018302840111640100000000831117156102be57600080fd5b91908080601f016020809104026020016040519081016040528093929190818152602001838380828437600081840152601f19601f820116905080830192505050505050509192919290505050610637565b60405180836fffffffffffffffffffffffffffffffff168152602001826fffffffffffffffffffffffffffffffff1681526020019250505060405180910390f35b6000818051602081018201805184825260208301602085012081835280955050505050506000915090505481565b600160009054906101000a900473ffffffffffffffffffffffffffffffffffffffff1673ffffffffffffffffffffffffffffffffffffffff163373ffffffffffffffffffffffffffffffffffffffff16146103d957600080fd5b80600160006101000a81548173ffffffffffffffffffffffffffffffffffffffff021916908373ffffffffffffffffffffffffffffffffffffffff1602179055507f121e958a4cadf7f8dadefa22cc019700365240223668418faebed197da07089f81604051808273ffffffffffffffffffffffffffffffffffffffff16815260200191505060405180910390a150565b600160009054906101000a900473ffffffffffffffffffffffffffffffffffffffff1673ffffffffffffffffffffffffffffffffffffffff163373ffffffffffffffffffffffffffffffffffffffff16146104c457600080fd5b6000816fffffffffffffffffffffffffffffffff166080846fffffffffffffffffffffffffffffffff16901b019050806000856040518082805190602001908083835b6020831061052a5780518252602082019150602081019050602083039250610507565b6001836020036101000a0380198251168184511680821785525050505050509050019150509081526020016040518091039020819055507fa7fc99ed7617309ee23f63ae90196a1e490d362e6f6a547a59bc809ee22917828484846040518080602001846fffffffffffffffffffffffffffffffff168152602001836fffffffffffffffffffffffffffffffff168152602001828103825285818151815260200191508051906020019080838360005b838110156105f55780820151818401526020810190506105da565b50505050905090810190601f1680156106225780820380516001836020036101000a031916815260200191505b5094505050505060405180910390a150505050565b600080600080846040518082805190602001908083835b60208310610671578051825260208201915060208101905060208303925061064e565b6001836020036101000a0380198251168184511680821785525050505050509050019150509081526020016040518091039020549050600070010000000000000000000000000000000082816106c357fe5b0690506000608083901c905080829450945050505091509156fea26469706673582212207c3735889b60a63f7f058773fe186f4265fc884cd792efba600772d7229f1d4964736f6c63430007040033",
  "immutableReferences": {},
  "source": "pragma solidity 0.7.4;\n\ncontract DIAOracle {\n    mapping (string => uint256) public values;\n    address oracleUpdater;\n    \n    event OracleUpdate(string key, uint128 value, uint128 timestamp);\n    event UpdaterAddressChange(address newUpdater);\n    \n    constructor() {\n        oracleUpdater = msg.sender;\n    }\n    \n    function setValue(string memory key, uint128 value, uint128 timestamp) public {\n        require(msg.sender == oracleUpdater);\n        uint256 cValue = (((uint256)(value)) << 128) + timestamp;\n        values[key] = cValue;\n        emit OracleUpdate(key, value, timestamp);\n    }\n    \n    function getValue(string memory key) public view returns (uint128, uint128) {\n        uint256 cValue = values[key];\n        uint128 timestamp = (uint128)(cValue % 2**128);\n        uint128 value = (uint128)(cValue >> 128);\n        return (value, timestamp);\n    }\n    \n    function updateOracleUpdaterAddress(address newOracleUpdaterAddress) public {\n        require(msg.sender == oracleUpdater);\n        oracleUpdater = newOracleUpdaterAddress;\n        emit UpdaterAddressChange(newOracleUpdaterAddress);\n    }\n}\n",
  "sourcePath": "/tmp/foo/contracts/DIAOracle.sol",
  "compiler": {
    "name": "solc",
    "version": "0.7.4+commit.3f05b770.Emscripten.clang"
  },
  "schemaVersion": "3.4.3",
  "updatedAt": "2021-11-26T16:38:32.696Z",
  "devdoc": {
    "kind": "dev",
    "methods": {},
    "version": 1
  },
  "userdoc": {
    "kind": "user",
    "methods": {},
    "version": 1
  }
}